{
  "contractName": "FlightSuretyData",
  "abi": [
    {
      "inputs": [],
      "payable": false,
      "stateMutability": "nonpayable",
      "type": "constructor"
    },
    {
      "payable": true,
      "stateMutability": "payable",
      "type": "fallback"
    },
    {
      "anonymous": false,
      "inputs": [
        {
          "indexed": false,
          "name": "contractOwner",
          "type": "address"
        }
      ],
      "name": "ContractOwner",
      "type": "event"
    },
    {
      "anonymous": false,
      "inputs": [
        {
          "indexed": false,
          "name": "airline",
          "type": "address"
        },
        {
          "indexed": false,
          "name": "isAllowedToVote",
          "type": "bool"
        }
      ],
      "name": "AirlineRegistered",
      "type": "event"
    },
    {
      "constant": false,
      "inputs": [
        {
          "name": "_callerAddress",
          "type": "address"
        }
      ],
      "name": "authorizeCaller",
      "outputs": [
        {
          "name": "",
          "type": "bool"
        }
      ],
      "payable": false,
      "stateMutability": "nonpayable",
      "type": "function"
    },
    {
      "constant": true,
      "inputs": [
        {
          "name": "someAddress",
          "type": "address"
        }
      ],
      "name": "isAirline",
      "outputs": [
        {
          "name": "",
          "type": "bool"
        }
      ],
      "payable": false,
      "stateMutability": "view",
      "type": "function"
    },
    {
      "constant": true,
      "inputs": [],
      "name": "isOperational",
      "outputs": [
        {
          "name": "",
          "type": "bool"
        }
      ],
      "payable": false,
      "stateMutability": "view",
      "type": "function"
    },
    {
      "constant": false,
      "inputs": [
        {
          "name": "mode",
          "type": "bool"
        }
      ],
      "name": "setOperatingStatus",
      "outputs": [],
      "payable": false,
      "stateMutability": "nonpayable",
      "type": "function"
    },
    {
      "constant": false,
      "inputs": [
        {
          "name": "originSender",
          "type": "address"
        },
        {
          "name": "airline",
          "type": "address"
        }
      ],
      "name": "registerAirline",
      "outputs": [
        {
          "name": "success",
          "type": "bool"
        }
      ],
      "payable": false,
      "stateMutability": "nonpayable",
      "type": "function"
    },
    {
      "constant": false,
      "inputs": [],
      "name": "buy",
      "outputs": [],
      "payable": true,
      "stateMutability": "payable",
      "type": "function"
    },
    {
      "constant": true,
      "inputs": [],
      "name": "creditInsurees",
      "outputs": [],
      "payable": false,
      "stateMutability": "pure",
      "type": "function"
    },
    {
      "constant": true,
      "inputs": [],
      "name": "pay",
      "outputs": [],
      "payable": false,
      "stateMutability": "pure",
      "type": "function"
    },
    {
      "constant": false,
      "inputs": [],
      "name": "fund",
      "outputs": [],
      "payable": true,
      "stateMutability": "payable",
      "type": "function"
    }
  ],
  "bytecode": "0x60806040526001600060146101000a81548160ff02191690831515021790555034801561002b57600080fd5b50336000806101000a81548173ffffffffffffffffffffffffffffffffffffffff021916908373ffffffffffffffffffffffffffffffffffffffff1602179055507f14e49bb617cc28a6c641502ed18662c4a046da1b3bb5e3e44761f7257fbe6ab46000809054906101000a900473ffffffffffffffffffffffffffffffffffffffff16604051808273ffffffffffffffffffffffffffffffffffffffff1673ffffffffffffffffffffffffffffffffffffffff16815260200191505060405180910390a16110da806100ff6000396000f300608060405260043610610099576000357c0100000000000000000000000000000000000000000000000000000000900463ffffffff1680630e248a11146100a3578063110466ed146100fe5780631b9265b81461012d5780632c388d5d1461014457806336cee4841461019f578063a6f2ae3a146101b6578063b60d4288146101c0578063c7ba5018146101ca578063cd905dff14610245575b6100a1610274565b005b3480156100af57600080fd5b506100e4600480360381019080803573ffffffffffffffffffffffffffffffffffffffff1690602001909291905050506106b8565b604051808215151515815260200191505060405180910390f35b34801561010a57600080fd5b5061012b600480360381019080803515159060200190929190505050610753565b005b34801561013957600080fd5b50610142610992565b005b34801561015057600080fd5b50610185600480360381019080803573ffffffffffffffffffffffffffffffffffffffff169060200190929190505050610994565b604051808215151515815260200191505060405180910390f35b3480156101ab57600080fd5b506101b4610a63565b005b6101be610a65565b005b6101c8610274565b005b3480156101d657600080fd5b5061022b600480360381019080803573ffffffffffffffffffffffffffffffffffffffff169060200190929190803573ffffffffffffffffffffffffffffffffffffffff169060200190929190505050610a67565b604051808215151515815260200191505060405180910390f35b34801561025157600080fd5b5061025a61107c565b604051808215151515815260200191505060405180910390f35b60006001801515811515141561039057600073ffffffffffffffffffffffffffffffffffffffff16600160003373ffffffffffffffffffffffffffffffffffffffff1673ffffffffffffffffffffffffffffffffffffffff16815260200190815260200160002060000160009054906101000a900473ffffffffffffffffffffffffffffffffffffffff1673ffffffffffffffffffffffffffffffffffffffff161415151561038b576040517f08c379a00000000000000000000000000000000000000000000000000000000081526004018080602001828103825260198152602001807f4169726c696e65206973206e6f7420726567697374657265640000000000000081525060200191505060405180910390fd5b610497565b600073ffffffffffffffffffffffffffffffffffffffff16600160003373ffffffffffffffffffffffffffffffffffffffff1673ffffffffffffffffffffffffffffffffffffffff16815260200190815260200160002060000160009054906101000a900473ffffffffffffffffffffffffffffffffffffffff1673ffffffffffffffffffffffffffffffffffffffff16141515610496576040517f08c379a000000000000000000000000000000000000000000000000000000000815260040180806020018281038252601d8152602001807f4169726c696e6520697320616c7265616479207265676973746572656400000081525060200191505060405180910390fd5b5b3391506104ef34600160008573ffffffffffffffffffffffffffffffffffffffff1673ffffffffffffffffffffffffffffffffffffffff1681526020019081526020016000206001015461109290919063ffffffff16565b50600a600160008473ffffffffffffffffffffffffffffffffffffffff1673ffffffffffffffffffffffffffffffffffffffff1681526020019081526020016000206001015411156106585760018060008473ffffffffffffffffffffffffffffffffffffffff1673ffffffffffffffffffffffffffffffffffffffff16815260200190815260200160002060020160006101000a81548160ff0219169083151502179055507f945c2c1176ed60fe5298a362ff65c5e71605de3b0be83177e24414cf14d7f21f82600160008573ffffffffffffffffffffffffffffffffffffffff1673ffffffffffffffffffffffffffffffffffffffff16815260200190815260200160002060020160009054906101000a900460ff16604051808373ffffffffffffffffffffffffffffffffffffffff1673ffffffffffffffffffffffffffffffffffffffff168152602001821515151581526020019250505060405180910390a16106b4565b6000600160008473ffffffffffffffffffffffffffffffffffffffff1673ffffffffffffffffffffffffffffffffffffffff16815260200190815260200160002060020160006101000a81548160ff0219169083151502179055505b5050565b60008073ffffffffffffffffffffffffffffffffffffffff16600160008473ffffffffffffffffffffffffffffffffffffffff1673ffffffffffffffffffffffffffffffffffffffff16815260200190815260200160002060000160009054906101000a900473ffffffffffffffffffffffffffffffffffffffff1673ffffffffffffffffffffffffffffffffffffffff1614159050919050565b6001801515811515141561086d57600073ffffffffffffffffffffffffffffffffffffffff16600160003373ffffffffffffffffffffffffffffffffffffffff1673ffffffffffffffffffffffffffffffffffffffff16815260200190815260200160002060000160009054906101000a900473ffffffffffffffffffffffffffffffffffffffff1673ffffffffffffffffffffffffffffffffffffffff1614151515610868576040517f08c379a00000000000000000000000000000000000000000000000000000000081526004018080602001828103825260198152602001807f4169726c696e65206973206e6f7420726567697374657265640000000000000081525060200191505060405180910390fd5b610974565b600073ffffffffffffffffffffffffffffffffffffffff16600160003373ffffffffffffffffffffffffffffffffffffffff1673ffffffffffffffffffffffffffffffffffffffff16815260200190815260200160002060000160009054906101000a900473ffffffffffffffffffffffffffffffffffffffff1673ffffffffffffffffffffffffffffffffffffffff16141515610973576040517f08c379a000000000000000000000000000000000000000000000000000000000815260040180806020018281038252601d8152602001807f4169726c696e6520697320616c7265616479207265676973746572656400000081525060200191505060405180910390fd5b5b81600060146101000a81548160ff0219169083151502179055505050565b565b6000816000806101000a81548173ffffffffffffffffffffffffffffffffffffffff021916908373ffffffffffffffffffffffffffffffffffffffff1602179055507f14e49bb617cc28a6c641502ed18662c4a046da1b3bb5e3e44761f7257fbe6ab46000809054906101000a900473ffffffffffffffffffffffffffffffffffffffff16604051808273ffffffffffffffffffffffffffffffffffffffff1673ffffffffffffffffffffffffffffffffffffffff16815260200191505060405180910390a160019050919050565b565b565b60008060149054906101000a900460ff161515610b12576040517f08c379a00000000000000000000000000000000000000000000000000000000081526004018080602001828103825260258152602001807f436f6e74726163742069732063757272656e746c79206e6f74206f706572617481526020017f696f6e616c00000000000000000000000000000000000000000000000000000081525060400191505060405180910390fd5b6000600115158115151415610c2d57600073ffffffffffffffffffffffffffffffffffffffff16600160003373ffffffffffffffffffffffffffffffffffffffff1673ffffffffffffffffffffffffffffffffffffffff16815260200190815260200160002060000160009054906101000a900473ffffffffffffffffffffffffffffffffffffffff1673ffffffffffffffffffffffffffffffffffffffff1614151515610c28576040517f08c379a00000000000000000000000000000000000000000000000000000000081526004018080602001828103825260198152602001807f4169726c696e65206973206e6f7420726567697374657265640000000000000081525060200191505060405180910390fd5b610d34565b600073ffffffffffffffffffffffffffffffffffffffff16600160003373ffffffffffffffffffffffffffffffffffffffff1673ffffffffffffffffffffffffffffffffffffffff16815260200190815260200160002060000160009054906101000a900473ffffffffffffffffffffffffffffffffffffffff1673ffffffffffffffffffffffffffffffffffffffff16141515610d33576040517f08c379a000000000000000000000000000000000000000000000000000000000815260040180806020018281038252601d8152602001807f4169726c696e6520697320616c7265616479207265676973746572656400000081525060200191505060405180910390fd5b5b60046002805490501015610eb6576000809054906101000a900473ffffffffffffffffffffffffffffffffffffffff1673ffffffffffffffffffffffffffffffffffffffff16600160003373ffffffffffffffffffffffffffffffffffffffff1673ffffffffffffffffffffffffffffffffffffffff16815260200190815260200160002060000160009054906101000a900473ffffffffffffffffffffffffffffffffffffffff1673ffffffffffffffffffffffffffffffffffffffff1614151515610eb5576040517f08c379a00000000000000000000000000000000000000000000000000000000081526004018080602001828103825260418152602001807f43757272656e746c792c206f6e6c792072656769737465726564206169726c6981526020017f6e65732063616e20726567697374657220616e6f74686572206169726c696e6581526020017f2e0000000000000000000000000000000000000000000000000000000000000081525060600191505060405180910390fd5b5b6060604051908101604052808473ffffffffffffffffffffffffffffffffffffffff1681526020016000815260200160001515815250600160008573ffffffffffffffffffffffffffffffffffffffff1673ffffffffffffffffffffffffffffffffffffffff16815260200190815260200160002060008201518160000160006101000a81548173ffffffffffffffffffffffffffffffffffffffff021916908373ffffffffffffffffffffffffffffffffffffffff1602179055506020820151816001015560408201518160020160006101000a81548160ff02191690831515021790555090505060028390806001815401808255809150509060018203906000526020600020016000909192909190916101000a81548173ffffffffffffffffffffffffffffffffffffffff021916908373ffffffffffffffffffffffffffffffffffffffff160217905550507f945c2c1176ed60fe5298a362ff65c5e71605de3b0be83177e24414cf14d7f21f836000604051808373ffffffffffffffffffffffffffffffffffffffff1673ffffffffffffffffffffffffffffffffffffffff168152602001821515151581526020019250505060405180910390a15092915050565b60008060149054906101000a900460ff16905090565b600081830190508281101515156110a557fe5b809050929150505600a165627a7a7230582021d5cc07b930f635afc9d34fbe780350802173fa9eaf7b2555eb5f8b6a8419de0029",
  "source": "pragma solidity ^0.4.25;\r\n\r\nimport \"../node_modules/openzeppelin-solidity/contracts/math/SafeMath.sol\";\r\n\r\ncontract FlightSuretyData {\r\n    using SafeMath for uint256;\r\n\r\n    /********************************************************************************************/\r\n    /*                                       DATA VARIABLES                                     */\r\n    /********************************************************************************************/\r\n\r\n    address private contractOwner;                                      // Account used to deploy contract\r\n    bool private operational = true;                                    // Blocks all state changes throughout the contract if false\r\n    \r\n    struct Airline {  \r\n        address airline;\r\n        uint256 balance;\r\n        bool isAllowedToVote; // Airline may not vote until it has funded 10 Ether. \r\n    }    \r\n    mapping(address => Airline) private airlines;\r\n    address[] private registeredAirlines; // Makes it easier to obtain airline count\r\n\r\n    /********************************************************************************************/\r\n    /*                                       EVENT DEFINITIONS                                  */\r\n    /********************************************************************************************/\r\n\r\n    event ContractOwner(address contractOwner);\r\n\r\n    // Event fired when an airline is registered\r\n    // Other airlines watch this and validate the airline\r\n    event AirlineRegistered(address airline, bool isAllowedToVote);\r\n\r\n\r\n    /**\r\n    * @dev Constructor\r\n    *      The deploying account becomes contractOwner\r\n    */\r\n    constructor\r\n                                (\r\n                                ) \r\n                                public\r\n    {\r\n        contractOwner = msg.sender;\r\n        emit ContractOwner(contractOwner);\r\n    }\r\n\r\n    /********************************************************************************************/\r\n    /*                                       FUNCTION MODIFIERS                                 */\r\n    /********************************************************************************************/\r\n\r\n    // Modifiers help avoid duplication of code. They are typically used to validate something\r\n    // before a function is allowed to be executed.\r\n\r\n    /**\r\n    * @dev Modifier that requires the \"operational\" boolean variable to be \"true\"\r\n    *      This is used on all state changing functions to pause the contract in \r\n    *      the event there is an issue that needs to be fixed\r\n    */\r\n    modifier requireIsOperational() \r\n    {\r\n        require(operational, \"Contract is currently not operational\");\r\n        _;  // All modifiers require an \"_\" which indicates where the function body will be added\r\n    }\r\n\r\n    /**\r\n    * @dev Modifier that requires the \"ContractOwner\" account to be the function caller\r\n    */\r\n    modifier requireContractOwner()\r\n    {\r\n        require(msg.sender == contractOwner, \"Caller is not contract owner\");\r\n        _;\r\n    }\r\n\r\n    /**\r\n    * @dev Modifier that requires the Airline to be registered\r\n    */    \r\n    modifier requireAirlineIsRegistered(bool desiredState)\r\n    {\r\n        if(desiredState == true){\r\n            require(airlines[msg.sender].airline != address(0), \"Airline is not registered\"); \r\n        }\r\n        else\r\n        {\r\n            require(airlines[msg.sender].airline == address(0), \"Airline is already registered\");\r\n        }\r\n        _;\r\n    }\r\n\r\n    /**\r\n    * @dev Only existing airline may register a new airline until there are at least four airlines registered.\r\n    */    \r\n\r\n    modifier requireAirlineIsFunded()\r\n    {\r\n        require(airlines[msg.sender].balance >= 10, \"Airline is not sufficiently funded.\"); \r\n        _;\r\n    }\r\n\r\n    /**\r\n    * @dev Only existing airline may register a new airline until there are at least four airlines registered.\r\n    */    \r\n\r\n    modifier requireFirstFourRestriction()\r\n    {\r\n        if(registeredAirlines.length < 4)\r\n        {\r\n            require(airlines[msg.sender].airline != contractOwner, \"Currently, only registered airlines can register another airline.\"); \r\n        }\r\n        _;\r\n    }\r\n\r\n    /********************************************************************************************/\r\n    /*                                       UTILITY FUNCTIONS                                  */\r\n    /********************************************************************************************/\r\n    /**\r\n    * @dev Is the addressed mapped to an airline?\r\n    *\r\n    */   \r\n   \r\n    function authorizeCaller(address _callerAddress) \r\n                            public \r\n                            returns(bool)\r\n\r\n    {\r\n        contractOwner = _callerAddress;\r\n        emit ContractOwner(contractOwner);\r\n        return true;\r\n    }\r\n\r\n    /**\r\n    * @dev Is the addressed mapped to an airline?\r\n    *\r\n    */      \r\n    function isAirline(address someAddress) \r\n                            public \r\n                            view \r\n                            returns(bool) \r\n    {\r\n        return (airlines[someAddress].airline != address(0));\r\n    }\r\n\r\n\r\n    /**\r\n    * @dev Get operating status of contract\r\n    *\r\n    * @return A bool that is the current operating status\r\n    */      \r\n    function isOperational() \r\n                            public \r\n                            view \r\n                            returns(bool) \r\n    {\r\n        return operational;\r\n    }\r\n\r\n\r\n    /**\r\n    * @dev Sets contract operations on/off\r\n    *\r\n    * When operational mode is disabled, all write transactions except for this one will fail\r\n    */    \r\n    function setOperatingStatus\r\n                            (\r\n                                bool mode\r\n                            ) \r\n                            external\r\n                            requireAirlineIsRegistered(true)\r\n    {\r\n        operational = mode;\r\n    }\r\n\r\n    /********************************************************************************************/\r\n    /*                                     SMART CONTRACT FUNCTIONS                             */\r\n    /********************************************************************************************/\r\n\r\n   /**\r\n    * @dev Add an airline to the registration queue\r\n    *      Can only be called from FlightSuretyApp contract.\r\n    *      Only existing airline may register a new airline until there are at least four airlines registered.\r\n    *\r\n    */   \r\n    function registerAirline\r\n                            (address originSender,\r\n                            address airline  \r\n                            )\r\n                            external\r\n\r\n                            requireIsOperational()\r\n                            requireAirlineIsRegistered(false) //Ensure that the airline isn't already registered\r\n                            //requireAirlineIsFunded()\r\n                            requireFirstFourRestriction()\r\n                            \r\n                            returns(bool success)\r\n    {\r\n                            airlines[airline] = Airline(airline, 0, false); // add new airline to mapping\r\n                            registeredAirlines.push(airline);               // add to array\r\n                            emit AirlineRegistered(airline, false);\r\n    }\r\n\r\n\r\n   /**\r\n    * @dev Buy insurance for a flight\r\n    *\r\n    */   \r\n    function buy\r\n                            (                             \r\n                            )\r\n                            external\r\n                            payable\r\n    {\r\n\r\n    }\r\n\r\n    /**\r\n     *  @dev Credits payouts to insurees\r\n    */\r\n    function creditInsurees\r\n                                (\r\n                                )\r\n                                external\r\n                                pure\r\n    {\r\n    }\r\n    \r\n\r\n    /**\r\n     *  @dev Transfers eligible payout funds to insuree\r\n     *\r\n    */\r\n    function pay\r\n                            (\r\n                            )\r\n                            external\r\n                            pure\r\n    {\r\n    }\r\n\r\n   /**\r\n    * @dev Initial funding for the insurance. Unless there are too many delayed flights\r\n    *      resulting in insurance payouts, the contract should be self-sustaining\r\n    *\r\n    */   \r\n    function fund\r\n                            (   \r\n                                //address airline\r\n                            )\r\n                            public\r\n                            payable\r\n\r\n                            requireAirlineIsRegistered(true)\r\n    {\r\n        address airline = msg.sender;\r\n        // Add msg.value to balance\r\n        airlines[airline].balance.add(msg.value); //SafeMath add\r\n        \r\n        \r\n        //Check balance. If > 10E: set isAllowedToVote to true & emit notice. Otherwise, no notice & set to false.\r\n        if (airlines[airline].balance > 10) {\r\n             airlines[airline].isAllowedToVote = true;\r\n             emit AirlineRegistered(airline, airlines[airline].isAllowedToVote);\r\n        }\r\n        else {\r\n            airlines[airline].isAllowedToVote = false;\r\n        }\r\n    }\r\n\r\n    function getFlightKey\r\n                        (\r\n                            address airline,\r\n                            string memory flight,\r\n                            //string flight,\r\n                            uint256 timestamp\r\n                        )\r\n                        pure\r\n                        internal\r\n                        returns(bytes32) \r\n    {\r\n        return keccak256(abi.encodePacked(airline, flight, timestamp));\r\n    }\r\n\r\n    /**\r\n    * @dev Fallback function for funding smart contract.\r\n    *      \"Fallback functions are also executed whenever a contract would receive plain Ether, without any data.\"\r\n    *\r\n    */\r\n    function() \r\n                            external \r\n                            payable \r\n    {\r\n        fund();\r\n    }\r\n\r\n\r\n}\r\n",
  "sourcePath": "C:\\Users\\mmaslar\\Source\\Repos\\GitHub\\flightsurety\\contracts\\FlightSuretyData.sol",
  "compiler": {
    "name": "solc",
    "version": "0.4.25+commit.59dbf8f1.Emscripten.clang"
  },
  "schemaVersion": "2.0.2",
  "updatedAt": "2019-03-19T20:37:26.291Z"
}