{
  "contractName": "FlightSuretyData",
  "abi": [
    {
      "inputs": [],
      "payable": false,
      "stateMutability": "nonpayable",
      "type": "constructor"
    },
    {
      "payable": true,
      "stateMutability": "payable",
      "type": "fallback"
    },
    {
      "constant": true,
      "inputs": [],
      "name": "isOperational",
      "outputs": [
        {
          "name": "",
          "type": "bool"
        }
      ],
      "payable": false,
      "stateMutability": "view",
      "type": "function"
    },
    {
      "constant": false,
      "inputs": [
        {
          "name": "mode",
          "type": "bool"
        }
      ],
      "name": "setOperatingStatus",
      "outputs": [],
      "payable": false,
      "stateMutability": "nonpayable",
      "type": "function"
    },
    {
      "constant": true,
      "inputs": [],
      "name": "registerAirline",
      "outputs": [],
      "payable": false,
      "stateMutability": "pure",
      "type": "function"
    },
    {
      "constant": false,
      "inputs": [],
      "name": "buy",
      "outputs": [],
      "payable": true,
      "stateMutability": "payable",
      "type": "function"
    },
    {
      "constant": true,
      "inputs": [],
      "name": "creditInsurees",
      "outputs": [],
      "payable": false,
      "stateMutability": "pure",
      "type": "function"
    },
    {
      "constant": true,
      "inputs": [],
      "name": "pay",
      "outputs": [],
      "payable": false,
      "stateMutability": "pure",
      "type": "function"
    },
    {
      "constant": false,
      "inputs": [],
      "name": "fund",
      "outputs": [],
      "payable": true,
      "stateMutability": "payable",
      "type": "function"
    }
  ],
  "bytecode": "0x60806040526001600060146101000a81548160ff02191690831515021790555034801561002b57600080fd5b50336000806101000a81548173ffffffffffffffffffffffffffffffffffffffff021916908373ffffffffffffffffffffffffffffffffffffffff1602179055506102718061007b6000396000f300608060405260043610610083576000357c0100000000000000000000000000000000000000000000000000000000900463ffffffff168063110466ed1461008d5780631b9265b8146100bc57806336cee484146100d357806363e29a3f146100ea578063a6f2ae3a14610101578063b60d42881461010b578063cd905dff14610115575b61008b610144565b005b34801561009957600080fd5b506100ba600480360381019080803515159060200190929190505050610146565b005b3480156100c857600080fd5b506100d1610227565b005b3480156100df57600080fd5b506100e8610229565b005b3480156100f657600080fd5b506100ff61022b565b005b61010961022d565b005b610113610144565b005b34801561012157600080fd5b5061012a61022f565b604051808215151515815260200191505060405180910390f35b565b6000809054906101000a900473ffffffffffffffffffffffffffffffffffffffff1673ffffffffffffffffffffffffffffffffffffffff163373ffffffffffffffffffffffffffffffffffffffff1614151561020a576040517f08c379a000000000000000000000000000000000000000000000000000000000815260040180806020018281038252601c8152602001807f43616c6c6572206973206e6f7420636f6e7472616374206f776e65720000000081525060200191505060405180910390fd5b80600060146101000a81548160ff02191690831515021790555050565b565b565b565b565b60008060149054906101000a900460ff169050905600a165627a7a723058207671a14a4dc52ddda5613f736e3f21baa1c0846061d5b5b4172a5bcc64ec614c0029",
  "source": "pragma solidity ^0.4.25;\r\n\r\nimport \"../node_modules/openzeppelin-solidity/contracts/math/SafeMath.sol\";\r\n\r\ncontract FlightSuretyData {\r\n    using SafeMath for uint256;\r\n\r\n    /********************************************************************************************/\r\n    /*                                       DATA VARIABLES                                     */\r\n    /********************************************************************************************/\r\n\r\n    address private contractOwner;                                      // Account used to deploy contract\r\n    bool private operational = true;                                    // Blocks all state changes throughout the contract if false\r\n\r\n    /********************************************************************************************/\r\n    /*                                       EVENT DEFINITIONS                                  */\r\n    /********************************************************************************************/\r\n\r\n\r\n    /**\r\n    * @dev Constructor\r\n    *      The deploying account becomes contractOwner\r\n    */\r\n    constructor\r\n                                (\r\n                                ) \r\n                                public \r\n    {\r\n        contractOwner = msg.sender;\r\n    }\r\n\r\n    /********************************************************************************************/\r\n    /*                                       FUNCTION MODIFIERS                                 */\r\n    /********************************************************************************************/\r\n\r\n    // Modifiers help avoid duplication of code. They are typically used to validate something\r\n    // before a function is allowed to be executed.\r\n\r\n    /**\r\n    * @dev Modifier that requires the \"operational\" boolean variable to be \"true\"\r\n    *      This is used on all state changing functions to pause the contract in \r\n    *      the event there is an issue that needs to be fixed\r\n    */\r\n    modifier requireIsOperational() \r\n    {\r\n        require(operational, \"Contract is currently not operational\");\r\n        _;  // All modifiers require an \"_\" which indicates where the function body will be added\r\n    }\r\n\r\n    /**\r\n    * @dev Modifier that requires the \"ContractOwner\" account to be the function caller\r\n    */\r\n    modifier requireContractOwner()\r\n    {\r\n        require(msg.sender == contractOwner, \"Caller is not contract owner\");\r\n        _;\r\n    }\r\n\r\n    /********************************************************************************************/\r\n    /*                                       UTILITY FUNCTIONS                                  */\r\n    /********************************************************************************************/\r\n\r\n    /**\r\n    * @dev Get operating status of contract\r\n    *\r\n    * @return A bool that is the current operating status\r\n    */      \r\n    function isOperational() \r\n                            public \r\n                            view \r\n                            returns(bool) \r\n    {\r\n        return operational;\r\n    }\r\n\r\n\r\n    /**\r\n    * @dev Sets contract operations on/off\r\n    *\r\n    * When operational mode is disabled, all write transactions except for this one will fail\r\n    */    \r\n    function setOperatingStatus\r\n                            (\r\n                                bool mode\r\n                            ) \r\n                            external\r\n                            requireContractOwner \r\n    {\r\n        operational = mode;\r\n    }\r\n\r\n    /********************************************************************************************/\r\n    /*                                     SMART CONTRACT FUNCTIONS                             */\r\n    /********************************************************************************************/\r\n\r\n   /**\r\n    * @dev Add an airline to the registration queue\r\n    *      Can only be called from FlightSuretyApp contract\r\n    *\r\n    */   \r\n    function registerAirline\r\n                            (   \r\n                            )\r\n                            external\r\n                            pure\r\n    {\r\n    }\r\n\r\n\r\n   /**\r\n    * @dev Buy insurance for a flight\r\n    *\r\n    */   \r\n    function buy\r\n                            (                             \r\n                            )\r\n                            external\r\n                            payable\r\n    {\r\n\r\n    }\r\n\r\n    /**\r\n     *  @dev Credits payouts to insurees\r\n    */\r\n    function creditInsurees\r\n                                (\r\n                                )\r\n                                external\r\n                                pure\r\n    {\r\n    }\r\n    \r\n\r\n    /**\r\n     *  @dev Transfers eligible payout funds to insuree\r\n     *\r\n    */\r\n    function pay\r\n                            (\r\n                            )\r\n                            external\r\n                            pure\r\n    {\r\n    }\r\n\r\n   /**\r\n    * @dev Initial funding for the insurance. Unless there are too many delayed flights\r\n    *      resulting in insurance payouts, the contract should be self-sustaining\r\n    *\r\n    */   \r\n    function fund\r\n                            (   \r\n                            )\r\n                            public\r\n                            payable\r\n    {\r\n    }\r\n\r\n    function getFlightKey\r\n                        (\r\n                            address airline,\r\n                            string memory flight,\r\n                            uint256 timestamp\r\n                        )\r\n                        pure\r\n                        internal\r\n                        returns(bytes32) \r\n    {\r\n        return keccak256(abi.encodePacked(airline, flight, timestamp));\r\n    }\r\n\r\n    /**\r\n    * @dev Fallback function for funding smart contract.\r\n    *\r\n    */\r\n    function() \r\n                            external \r\n                            payable \r\n    {\r\n        fund();\r\n    }\r\n\r\n\r\n}\r\n\r\n",
  "sourcePath": "C:\\Users\\mmaslar\\Source\\Repos\\GitHub\\flightsurety\\contracts\\FlightSuretyData.sol",
  "compiler": {
    "name": "solc",
    "version": "0.4.25+commit.59dbf8f1.Emscripten.clang"
  },
  "schemaVersion": "2.0.2",
  "updatedAt": "2019-03-08T18:35:23.783Z"
}