{
  "contractName": "FlightSuretyData",
  "abi": [
    {
      "constant": false,
      "inputs": [],
      "name": "renounceOwnership",
      "outputs": [],
      "payable": false,
      "stateMutability": "nonpayable",
      "type": "function"
    },
    {
      "constant": true,
      "inputs": [],
      "name": "owner",
      "outputs": [
        {
          "name": "",
          "type": "address"
        }
      ],
      "payable": false,
      "stateMutability": "view",
      "type": "function"
    },
    {
      "constant": true,
      "inputs": [],
      "name": "isOwner",
      "outputs": [
        {
          "name": "",
          "type": "bool"
        }
      ],
      "payable": false,
      "stateMutability": "view",
      "type": "function"
    },
    {
      "constant": false,
      "inputs": [
        {
          "name": "newOwner",
          "type": "address"
        }
      ],
      "name": "transferOwnership",
      "outputs": [],
      "payable": false,
      "stateMutability": "nonpayable",
      "type": "function"
    },
    {
      "inputs": [],
      "payable": false,
      "stateMutability": "nonpayable",
      "type": "constructor"
    },
    {
      "payable": true,
      "stateMutability": "payable",
      "type": "fallback"
    },
    {
      "anonymous": false,
      "inputs": [
        {
          "indexed": false,
          "name": "contractOwner",
          "type": "address"
        }
      ],
      "name": "ContractOwner",
      "type": "event"
    },
    {
      "anonymous": false,
      "inputs": [
        {
          "indexed": false,
          "name": "airlineAddress",
          "type": "address"
        },
        {
          "indexed": false,
          "name": "isAllowedToVote",
          "type": "bool"
        }
      ],
      "name": "AirlineRegistered",
      "type": "event"
    },
    {
      "anonymous": false,
      "inputs": [
        {
          "indexed": true,
          "name": "oldOwner",
          "type": "address"
        },
        {
          "indexed": true,
          "name": "newOwner",
          "type": "address"
        }
      ],
      "name": "TransferOwnership",
      "type": "event"
    },
    {
      "constant": false,
      "inputs": [
        {
          "name": "_callerAddress",
          "type": "address"
        }
      ],
      "name": "authorizeCaller",
      "outputs": [
        {
          "name": "",
          "type": "bool"
        }
      ],
      "payable": false,
      "stateMutability": "nonpayable",
      "type": "function"
    },
    {
      "constant": true,
      "inputs": [
        {
          "name": "someAddress",
          "type": "address"
        }
      ],
      "name": "isAirline",
      "outputs": [
        {
          "name": "",
          "type": "bool"
        }
      ],
      "payable": false,
      "stateMutability": "view",
      "type": "function"
    },
    {
      "constant": true,
      "inputs": [],
      "name": "isOperational",
      "outputs": [
        {
          "name": "",
          "type": "bool"
        }
      ],
      "payable": false,
      "stateMutability": "view",
      "type": "function"
    },
    {
      "constant": false,
      "inputs": [
        {
          "name": "mode",
          "type": "bool"
        }
      ],
      "name": "setOperatingStatus",
      "outputs": [],
      "payable": false,
      "stateMutability": "nonpayable",
      "type": "function"
    },
    {
      "constant": false,
      "inputs": [
        {
          "name": "newairlineAddress",
          "type": "address"
        },
        {
          "name": "originSender",
          "type": "address"
        }
      ],
      "name": "registerAirline",
      "outputs": [
        {
          "name": "success",
          "type": "bool"
        }
      ],
      "payable": false,
      "stateMutability": "nonpayable",
      "type": "function"
    },
    {
      "constant": false,
      "inputs": [],
      "name": "buy",
      "outputs": [],
      "payable": true,
      "stateMutability": "payable",
      "type": "function"
    },
    {
      "constant": false,
      "inputs": [
        {
          "name": "airline",
          "type": "address"
        },
        {
          "name": "flight",
          "type": "string"
        },
        {
          "name": "timestamp",
          "type": "uint256"
        }
      ],
      "name": "creditInsurees",
      "outputs": [],
      "payable": false,
      "stateMutability": "nonpayable",
      "type": "function"
    },
    {
      "constant": true,
      "inputs": [],
      "name": "pay",
      "outputs": [],
      "payable": false,
      "stateMutability": "pure",
      "type": "function"
    },
    {
      "constant": false,
      "inputs": [
        {
          "name": "airline",
          "type": "address"
        }
      ],
      "name": "fund",
      "outputs": [],
      "payable": true,
      "stateMutability": "payable",
      "type": "function"
    }
  ],
  "bytecode": "0x608060405260018060146101000a81548160ff02191690831515021790555034801561002a57600080fd5b50336000806101000a81548173ffffffffffffffffffffffffffffffffffffffff021916908373ffffffffffffffffffffffffffffffffffffffff1602179055506000809054906101000a900473ffffffffffffffffffffffffffffffffffffffff1673ffffffffffffffffffffffffffffffffffffffff16600073ffffffffffffffffffffffffffffffffffffffff167f5c486528ec3e3f0ea91181cff8116f02bfa350e03b8b6f12e00765adbb5af85c60405160405180910390a333600160006101000a81548173ffffffffffffffffffffffffffffffffffffffff021916908373ffffffffffffffffffffffffffffffffffffffff1602179055507f14e49bb617cc28a6c641502ed18662c4a046da1b3bb5e3e44761f7257fbe6ab4600160009054906101000a900473ffffffffffffffffffffffffffffffffffffffff16604051808273ffffffffffffffffffffffffffffffffffffffff1673ffffffffffffffffffffffffffffffffffffffff16815260200191505060405180910390a16111ae806101bc6000396000f3006080604052600436106100c5576000357c0100000000000000000000000000000000000000000000000000000000900463ffffffff1680630e248a11146100f2578063110466ed1461014d5780631b9265b81461017c57806323024408146101935780632c388d5d146101c9578063715018a6146102245780638da5cb5b1461023b5780638f32d59b14610292578063a6f2ae3a146102c1578063c7ba5018146102cb578063c8820a7014610346578063cd905dff146103ab578063f2fde38b146103da575b6100f0600160009054906101000a900473ffffffffffffffffffffffffffffffffffffffff1661041d565b005b3480156100fe57600080fd5b50610133600480360381019080803573ffffffffffffffffffffffffffffffffffffffff16906020019092919050505061063b565b604051808215151515815260200191505060405180910390f35b34801561015957600080fd5b5061017a6004803603810190808035151590602001909291905050506106d6565b005b34801561018857600080fd5b5061019161083d565b005b6101c7600480360381019080803573ffffffffffffffffffffffffffffffffffffffff16906020019092919050505061041d565b005b3480156101d557600080fd5b5061020a600480360381019080803573ffffffffffffffffffffffffffffffffffffffff16906020019092919050505061083f565b604051808215151515815260200191505060405180910390f35b34801561023057600080fd5b50610239610910565b005b34801561024757600080fd5b506102506109e2565b604051808273ffffffffffffffffffffffffffffffffffffffff1673ffffffffffffffffffffffffffffffffffffffff16815260200191505060405180910390f35b34801561029e57600080fd5b506102a7610a0b565b604051808215151515815260200191505060405180910390f35b6102c9610a62565b005b3480156102d757600080fd5b5061032c600480360381019080803573ffffffffffffffffffffffffffffffffffffffff169060200190929190803573ffffffffffffffffffffffffffffffffffffffff169060200190929190505050610a64565b604051808215151515815260200191505060405180910390f35b34801561035257600080fd5b506103a9600480360381019080803573ffffffffffffffffffffffffffffffffffffffff16906020019092919080359060200190820180359060200191909192939192939080359060200190929190505050611030565b005b3480156103b757600080fd5b506103c0611036565b604051808215151515815260200191505060405180910390f35b3480156103e657600080fd5b5061041b600480360381019080803573ffffffffffffffffffffffffffffffffffffffff16906020019092919050505061104d565b005b61047234600260008473ffffffffffffffffffffffffffffffffffffffff1673ffffffffffffffffffffffffffffffffffffffff1681526020019081526020016000206001015461106c90919063ffffffff16565b50600a600260008373ffffffffffffffffffffffffffffffffffffffff1673ffffffffffffffffffffffffffffffffffffffff1681526020019081526020016000206001015411156105dc576001600260008373ffffffffffffffffffffffffffffffffffffffff1673ffffffffffffffffffffffffffffffffffffffff16815260200190815260200160002060020160016101000a81548160ff0219169083151502179055507f945c2c1176ed60fe5298a362ff65c5e71605de3b0be83177e24414cf14d7f21f81600260008473ffffffffffffffffffffffffffffffffffffffff1673ffffffffffffffffffffffffffffffffffffffff16815260200190815260200160002060020160019054906101000a900460ff16604051808373ffffffffffffffffffffffffffffffffffffffff1673ffffffffffffffffffffffffffffffffffffffff168152602001821515151581526020019250505060405180910390a1610638565b6000600260008373ffffffffffffffffffffffffffffffffffffffff1673ffffffffffffffffffffffffffffffffffffffff16815260200190815260200160002060020160016101000a81548160ff0219169083151502179055505b50565b60008073ffffffffffffffffffffffffffffffffffffffff16600260008473ffffffffffffffffffffffffffffffffffffffff1673ffffffffffffffffffffffffffffffffffffffff16815260200190815260200160002060000160009054906101000a900473ffffffffffffffffffffffffffffffffffffffff1673ffffffffffffffffffffffffffffffffffffffff1614159050919050565b600160009054906101000a900473ffffffffffffffffffffffffffffffffffffffff1673ffffffffffffffffffffffffffffffffffffffff163373ffffffffffffffffffffffffffffffffffffffff1614151561079b576040517f08c379a000000000000000000000000000000000000000000000000000000000815260040180806020018281038252601c8152602001807f43616c6c6572206973206e6f7420636f6e7472616374206f776e65720000000081525060200191505060405180910390fd5b7f14e49bb617cc28a6c641502ed18662c4a046da1b3bb5e3e44761f7257fbe6ab4600160009054906101000a900473ffffffffffffffffffffffffffffffffffffffff16604051808273ffffffffffffffffffffffffffffffffffffffff1673ffffffffffffffffffffffffffffffffffffffff16815260200191505060405180910390a180600160146101000a81548160ff02191690831515021790555050565b565b600081600160006101000a81548173ffffffffffffffffffffffffffffffffffffffff021916908373ffffffffffffffffffffffffffffffffffffffff1602179055507f14e49bb617cc28a6c641502ed18662c4a046da1b3bb5e3e44761f7257fbe6ab4600160009054906101000a900473ffffffffffffffffffffffffffffffffffffffff16604051808273ffffffffffffffffffffffffffffffffffffffff1673ffffffffffffffffffffffffffffffffffffffff16815260200191505060405180910390a160019050919050565b610918610a0b565b151561092357600080fd5b600073ffffffffffffffffffffffffffffffffffffffff166000809054906101000a900473ffffffffffffffffffffffffffffffffffffffff1673ffffffffffffffffffffffffffffffffffffffff167f5c486528ec3e3f0ea91181cff8116f02bfa350e03b8b6f12e00765adbb5af85c60405160405180910390a360008060006101000a81548173ffffffffffffffffffffffffffffffffffffffff021916908373ffffffffffffffffffffffffffffffffffffffff160217905550565b60008060009054906101000a900473ffffffffffffffffffffffffffffffffffffffff16905090565b60008060009054906101000a900473ffffffffffffffffffffffffffffffffffffffff1673ffffffffffffffffffffffffffffffffffffffff163373ffffffffffffffffffffffffffffffffffffffff1614905090565b565b6000600160149054906101000a900460ff161515610b10576040517f08c379a00000000000000000000000000000000000000000000000000000000081526004018080602001828103825260258152602001807f436f6e74726163742069732063757272656e746c79206e6f74206f706572617481526020017f696f6e616c00000000000000000000000000000000000000000000000000000081525060400191505060405180910390fd5b8260011515600260008373ffffffffffffffffffffffffffffffffffffffff1673ffffffffffffffffffffffffffffffffffffffff16815260200190815260200160002060020160009054906101000a900460ff16151514151515610bdd576040517f08c379a000000000000000000000000000000000000000000000000000000000815260040180806020018281038252601d8152602001807f4169726c696e6520697320616c7265616479207265676973746572656400000081525060200191505060405180910390fd5b600a600260003373ffffffffffffffffffffffffffffffffffffffff1673ffffffffffffffffffffffffffffffffffffffff1681526020019081526020016000206001015410151515610cbe576040517f08c379a00000000000000000000000000000000000000000000000000000000081526004018080602001828103825260238152602001807f4169726c696e65206973206e6f742073756666696369656e746c792066756e6481526020017f65642e000000000000000000000000000000000000000000000000000000000081525060400191505060405180910390fd5b60046003805490501015610e4157600160009054906101000a900473ffffffffffffffffffffffffffffffffffffffff1673ffffffffffffffffffffffffffffffffffffffff16600260003373ffffffffffffffffffffffffffffffffffffffff1673ffffffffffffffffffffffffffffffffffffffff16815260200190815260200160002060000160009054906101000a900473ffffffffffffffffffffffffffffffffffffffff1673ffffffffffffffffffffffffffffffffffffffff1614151515610e40576040517f08c379a00000000000000000000000000000000000000000000000000000000081526004018080602001828103825260418152602001807f43757272656e746c792c206f6e6c792072656769737465726564206169726c6981526020017f6e65732063616e20726567697374657220616e6f74686572206169726c696e6581526020017f2e0000000000000000000000000000000000000000000000000000000000000081525060600191505060405180910390fd5b5b6080604051908101604052808573ffffffffffffffffffffffffffffffffffffffff1681526020016000815260200160011515815260200160001515815250600260008673ffffffffffffffffffffffffffffffffffffffff1673ffffffffffffffffffffffffffffffffffffffff16815260200190815260200160002060008201518160000160006101000a81548173ffffffffffffffffffffffffffffffffffffffff021916908373ffffffffffffffffffffffffffffffffffffffff1602179055506020820151816001015560408201518160020160006101000a81548160ff02191690831515021790555060608201518160020160016101000a81548160ff02191690831515021790555090505060038490806001815401808255809150509060018203906000526020600020016000909192909190916101000a81548173ffffffffffffffffffffffffffffffffffffffff021916908373ffffffffffffffffffffffffffffffffffffffff160217905550507f945c2c1176ed60fe5298a362ff65c5e71605de3b0be83177e24414cf14d7f21f846000604051808373ffffffffffffffffffffffffffffffffffffffff1673ffffffffffffffffffffffffffffffffffffffff168152602001821515151581526020019250505060405180910390a15092915050565b50505050565b6000600160149054906101000a900460ff16905090565b611055610a0b565b151561106057600080fd5b61106981611088565b50565b6000818301905082811015151561107f57fe5b80905092915050565b600073ffffffffffffffffffffffffffffffffffffffff168173ffffffffffffffffffffffffffffffffffffffff16141515156110c457600080fd5b8073ffffffffffffffffffffffffffffffffffffffff166000809054906101000a900473ffffffffffffffffffffffffffffffffffffffff1673ffffffffffffffffffffffffffffffffffffffff167f5c486528ec3e3f0ea91181cff8116f02bfa350e03b8b6f12e00765adbb5af85c60405160405180910390a3806000806101000a81548173ffffffffffffffffffffffffffffffffffffffff021916908373ffffffffffffffffffffffffffffffffffffffff160217905550505600a165627a7a723058208115aafae32b4ec45db6fffcae262603941214b9a4ceb39382897ba2d2d3dabc0029",
  "source": "pragma solidity ^0.4.25;\n\nimport \"../node_modules/openzeppelin-solidity/contracts/math/SafeMath.sol\";\nimport \"./Ownable.sol\";\n\ncontract FlightSuretyData is Ownable {\n    using SafeMath for uint256;\n\n    /********************************************************************************************/\n    /*                                       DATA VARIABLES                                     */\n    /********************************************************************************************/\n\n    address private contractOwner;                                      // Account used to deploy contract\n    bool private operational = true;                                    // Blocks all state changes throughout the contract if false\n    \n    struct Airline {\n        address airlineAddress;\n        uint256 balance;\n        bool isRegistered;\n        bool isAllowedToVote; // Airline may not vote until it has funded 10 Ether. \n    }    \n    mapping(address => Airline) private airlines;\n    address[] private registeredAirlines; // Makes it easier to obtain airline count\n\n    /********************************************************************************************/\n    /*                                       EVENT DEFINITIONS                                  */\n    /********************************************************************************************/\n\n    event ContractOwner(address contractOwner);\n\n    // Event fired when an airline is registered\n    // Other airlines watch this and validate the airline\n    event AirlineRegistered(address airlineAddress, bool isAllowedToVote);\n\n\n    /**\n    * @dev Constructor\n    *      The deploying account becomes contractOwner\n    */\n    constructor\n                                (\n                                ) \n                                public\n    {\n        contractOwner = msg.sender;\n        emit ContractOwner(contractOwner);\n    }\n\n    /********************************************************************************************/\n    /*                                       FUNCTION MODIFIERS                                 */\n    /********************************************************************************************/\n\n    // Modifiers help avoid duplication of code. They are typically used to validate something\n    // before a function is allowed to be executed.\n\n    /**\n    * @dev Modifier that requires the \"operational\" boolean variable to be \"true\"\n    *      This is used on all state changing functions to pause the contract in \n    *      the event there is an issue that needs to be fixed\n    */\n    modifier requireIsOperational() \n    {\n        require(operational, \"Contract is currently not operational\");\n        _;  // All modifiers require an \"_\" which indicates where the function body will be added\n    }\n\n    modifier requireIsNotOperational() \n    {\n        require(!operational, \"Only supported if contract is not operational\");\n        _;  // All modifiers require an \"_\" which indicates where the function body will be added\n    }\n\n\n    /**\n    * @dev Modifier that requires the \"ContractOwner\" account to be the function caller\n    */\n    modifier requireContractOwner()\n    {\n        require(msg.sender == contractOwner, \"Caller is not contract owner\");\n        _;\n    }\n\n    modifier requireNotAlreadyRegistered(address newAirline)\n    {\n        require(airlines[newAirline].isRegistered != true, \"Airline is already registered\");\n        _;\n    }\n\n    /**\n    * @dev Modifier that requires the Airline to be registered\n    */    \n    modifier requireAirlineIsRegistered(address newAirline)\n    {\n        // if(desiredState == true){\n        //     require(airlines[msg.sender].airlineAddress != address(0), \"Airline is not registered\"); \n        // }\n        // else\n        // {\n        //     require(airlines[msg.sender].airlineAddress == address(0), \"Airline is already registered\");\n        // }\n        // _;\n        require(airlines[newAirline].isRegistered == true, \"Airline is not registered\");\n        _;        \n    }\n\n    /**\n    * @dev Only existing airline may register a new airline until there are at least four airlines registered.\n    */    \n\n    modifier requireAirlineIsFunded()\n    {\n        require(airlines[msg.sender].balance >= 10, \"Airline is not sufficiently funded.\"); \n        _;\n    }\n\n    /**\n    * @dev Only existing airline may register a new airline until there are at least four airlines registered.\n    */    \n\n    modifier requireFirstFourRestriction()\n    {\n        if(registeredAirlines.length < 4)\n        {\n            require(airlines[msg.sender].airlineAddress != contractOwner, \"Currently, only registered airlines can register another airline.\"); \n        }\n        _;\n    }\n\n    /********************************************************************************************/\n    /*                                       UTILITY FUNCTIONS                                  */\n    /********************************************************************************************/\n    /**\n    * @dev Is the addressed mapped to an airline?\n    *\n    */   \n   \n    function authorizeCaller(address _callerAddress) \n                            public \n                            returns(bool)\n\n    {\n        contractOwner = _callerAddress;\n        emit ContractOwner(contractOwner);\n        return true;\n    }\n\n    /**\n    * @dev Is the addressed mapped to an airline?\n    *\n    */      \n    function isAirline(address someAddress) \n                            public \n                            view \n                            returns(bool) \n    {\n        return (airlines[someAddress].airlineAddress != address(0));\n    }\n\n\n    /**\n    * @dev Get operating status of contract\n    *\n    * @return A bool that is the current operating status\n    */      \n    function isOperational() \n                            public \n                            view \n                            returns(bool) \n    {\n        return operational;\n    }\n\n\n    /**\n    * @dev Sets contract operations on/off\n    *\n    * When operational mode is disabled, all write transactions except for this one will fail\n    */    \n    function setOperatingStatus\n                            (\n                                bool mode\n                            ) \n                            external\n                            requireContractOwner()\n                            // requireIsNotOperational() // This function kills the contract, and it stays killed.\n                            ////requireAirlineIsRegistered(true)\n    {\n        emit ContractOwner(contractOwner);\n        operational = mode;\n    }\n\n    /********************************************************************************************/\n    /*                                     SMART CONTRACT FUNCTIONS                             */\n    /********************************************************************************************/\n\n   /**\n    * @dev Add an airline to the registration queue\n    *      Can only be called from FlightSuretyApp contract.\n    *      Only existing airline may register a new airline until there are at least four airlines registered.\n    *\n    */   \n    function registerAirline\n                            (address newairlineAddress,\n                            address originSender\n                            )\n                            external\n\n                            requireIsOperational()\n                            //requireAirlineIsRegistered(false) //Ensure that the airline isn't already registered\n                            requireNotAlreadyRegistered(newairlineAddress)\n                            requireAirlineIsFunded()\n                            requireFirstFourRestriction()\n                            \n                            returns(bool success)\n    {\n                            airlines[newairlineAddress] = Airline(newairlineAddress, 0, true, false); // add new airline to mapping\n                            registeredAirlines.push(newairlineAddress);               // add to array\n                            emit AirlineRegistered(newairlineAddress, false);\n    }\n\n\n   /**\n    * @dev Buy insurance for a flight\n    *\n    */   \n    function buy\n                            (                             \n                            )\n                            external\n                            payable\n    {\n\n    }\n\n    /**\n     *  @dev Credits payouts to insurees\n    */\n    function creditInsurees\n                                ( \n                                    address airline,\n                                    string flight,\n                                    uint256 timestamp\n                                )\n                                external\n    {\n\n        // TODO Process refunds\n    }\n    \n\n    /**\n     *  @dev Transfers eligible payout funds to insuree\n     *\n    */\n    function pay\n                            (\n                            )\n                            external\n                            pure\n    {\n    }\n\n   /**\n    * @dev Initial funding for the insurance. Unless there are too many delayed flights\n    *      resulting in insurance payouts, the contract should be self-sustaining\n    *\n    */   \n    function fund\n                            (   \n                                address airline\n                            )\n                            public\n                            payable\n\n                            //// requireAirlineIsRegistered(airline)\n    {\n        // address airline = msg.sender;\n        // Add msg.value to balance\n        airlines[airline].balance.add(msg.value); //SafeMath add\n        \n        \n        //Check balance. If > 10E: set isAllowedToVote to true & emit notice. Otherwise, no notice & set to false.\n        if (airlines[airline].balance > 10) {\n             airlines[airline].isAllowedToVote = true;\n             emit AirlineRegistered(airline, airlines[airline].isAllowedToVote);\n        }\n        else {\n            airlines[airline].isAllowedToVote = false;\n        }\n    }\n\n    function getFlightKey\n                        (\n                            address airline,\n                            string memory flight,\n                            //string flight,\n                            uint256 timestamp\n                        )\n                        pure\n                        internal\n                        returns(bytes32) \n    {\n        return keccak256(abi.encodePacked(airline, flight, timestamp));\n    }\n\n    /**\n    * @dev Fallback function for funding smart contract.\n    *      \"Fallback functions are also executed whenever a contract would receive plain Ether, without any data.\"\n    *\n    */\n    function() \n                            external \n                            payable \n    {\n        fund(contractOwner);\n    }\n\n\n}\n",
  "sourcePath": "C:\\Users\\Mark\\source\\repos\\GitHub\\flightsurety\\contracts\\FlightSuretyData.sol",
  "compiler": {
    "name": "solc",
    "version": "0.4.25+commit.59dbf8f1.Emscripten.clang"
  },
  "schemaVersion": "2.0.2",
  "updatedAt": "2019-04-13T19:41:29.499Z"
}