{
  "contractName": "FlightSuretyData",
  "abi": [
    {
      "inputs": [],
      "payable": false,
      "stateMutability": "nonpayable",
      "type": "constructor"
    },
    {
      "payable": true,
      "stateMutability": "payable",
      "type": "fallback"
    },
    {
      "anonymous": false,
      "inputs": [
        {
          "indexed": false,
          "name": "contractOwner",
          "type": "address"
        }
      ],
      "name": "ContractOwner",
      "type": "event"
    },
    {
      "anonymous": false,
      "inputs": [
        {
          "indexed": false,
          "name": "airlineWalletAddress",
          "type": "address"
        },
        {
          "indexed": false,
          "name": "isAllowedToVote",
          "type": "bool"
        }
      ],
      "name": "AirlineRegistered",
      "type": "event"
    },
    {
      "constant": false,
      "inputs": [
        {
          "name": "_callerAddress",
          "type": "address"
        }
      ],
      "name": "authorizeCaller",
      "outputs": [
        {
          "name": "",
          "type": "bool"
        }
      ],
      "payable": false,
      "stateMutability": "nonpayable",
      "type": "function"
    },
    {
      "constant": true,
      "inputs": [
        {
          "name": "someAddress",
          "type": "address"
        }
      ],
      "name": "isAirline",
      "outputs": [
        {
          "name": "",
          "type": "bool"
        }
      ],
      "payable": false,
      "stateMutability": "view",
      "type": "function"
    },
    {
      "constant": true,
      "inputs": [],
      "name": "isOperational",
      "outputs": [
        {
          "name": "",
          "type": "bool"
        }
      ],
      "payable": false,
      "stateMutability": "view",
      "type": "function"
    },
    {
      "constant": false,
      "inputs": [
        {
          "name": "mode",
          "type": "bool"
        }
      ],
      "name": "setOperatingStatus",
      "outputs": [],
      "payable": false,
      "stateMutability": "nonpayable",
      "type": "function"
    },
    {
      "constant": false,
      "inputs": [
        {
          "name": "newAirlineWalletAddress",
          "type": "address"
        },
        {
          "name": "originSender",
          "type": "address"
        }
      ],
      "name": "registerAirline",
      "outputs": [
        {
          "name": "success",
          "type": "bool"
        }
      ],
      "payable": false,
      "stateMutability": "nonpayable",
      "type": "function"
    },
    {
      "constant": false,
      "inputs": [],
      "name": "buy",
      "outputs": [],
      "payable": true,
      "stateMutability": "payable",
      "type": "function"
    },
    {
      "constant": true,
      "inputs": [],
      "name": "creditInsurees",
      "outputs": [],
      "payable": false,
      "stateMutability": "pure",
      "type": "function"
    },
    {
      "constant": true,
      "inputs": [],
      "name": "pay",
      "outputs": [],
      "payable": false,
      "stateMutability": "pure",
      "type": "function"
    },
    {
      "constant": false,
      "inputs": [
        {
          "name": "airline",
          "type": "address"
        }
      ],
      "name": "fund",
      "outputs": [],
      "payable": true,
      "stateMutability": "payable",
      "type": "function"
    }
  ],
  "bytecode": "0x60806040526001600060146101000a81548160ff02191690831515021790555034801561002b57600080fd5b50336000806101000a81548173ffffffffffffffffffffffffffffffffffffffff021916908373ffffffffffffffffffffffffffffffffffffffff1602179055507f14e49bb617cc28a6c641502ed18662c4a046da1b3bb5e3e44761f7257fbe6ab46000809054906101000a900473ffffffffffffffffffffffffffffffffffffffff16604051808273ffffffffffffffffffffffffffffffffffffffff1673ffffffffffffffffffffffffffffffffffffffff16815260200191505060405180910390a1610e02806100ff6000396000f300608060405260043610610099576000357c0100000000000000000000000000000000000000000000000000000000900463ffffffff1680630e248a11146100c5578063110466ed146101205780631b9265b81461014f57806323024408146101665780632c388d5d1461019c57806336cee484146101f7578063a6f2ae3a1461020e578063c7ba501814610218578063cd905dff14610293575b6100c36000809054906101000a900473ffffffffffffffffffffffffffffffffffffffff166102c2565b005b3480156100d157600080fd5b50610106600480360381019080803573ffffffffffffffffffffffffffffffffffffffff1690602001909291905050506104df565b604051808215151515815260200191505060405180910390f35b34801561012c57600080fd5b5061014d60048036038101908080351515906020019092919050505061057a565b005b34801561015b57600080fd5b50610164610705565b005b61019a600480360381019080803573ffffffffffffffffffffffffffffffffffffffff1690602001909291905050506102c2565b005b3480156101a857600080fd5b506101dd600480360381019080803573ffffffffffffffffffffffffffffffffffffffff169060200190929190505050610707565b604051808215151515815260200191505060405180910390f35b34801561020357600080fd5b5061020c6107d6565b005b6102166107d8565b005b34801561022457600080fd5b50610279600480360381019080803573ffffffffffffffffffffffffffffffffffffffff169060200190929190803573ffffffffffffffffffffffffffffffffffffffff1690602001909291905050506107da565b604051808215151515815260200191505060405180910390f35b34801561029f57600080fd5b506102a8610da4565b604051808215151515815260200191505060405180910390f35b61031734600160008473ffffffffffffffffffffffffffffffffffffffff1673ffffffffffffffffffffffffffffffffffffffff16815260200190815260200160002060010154610dba90919063ffffffff16565b50600a600160008373ffffffffffffffffffffffffffffffffffffffff1673ffffffffffffffffffffffffffffffffffffffff1681526020019081526020016000206001015411156104805760018060008373ffffffffffffffffffffffffffffffffffffffff1673ffffffffffffffffffffffffffffffffffffffff16815260200190815260200160002060020160016101000a81548160ff0219169083151502179055507f945c2c1176ed60fe5298a362ff65c5e71605de3b0be83177e24414cf14d7f21f81600160008473ffffffffffffffffffffffffffffffffffffffff1673ffffffffffffffffffffffffffffffffffffffff16815260200190815260200160002060020160019054906101000a900460ff16604051808373ffffffffffffffffffffffffffffffffffffffff1673ffffffffffffffffffffffffffffffffffffffff168152602001821515151581526020019250505060405180910390a16104dc565b6000600160008373ffffffffffffffffffffffffffffffffffffffff1673ffffffffffffffffffffffffffffffffffffffff16815260200190815260200160002060020160016101000a81548160ff0219169083151502179055505b50565b60008073ffffffffffffffffffffffffffffffffffffffff16600160008473ffffffffffffffffffffffffffffffffffffffff1673ffffffffffffffffffffffffffffffffffffffff16815260200190815260200160002060000160009054906101000a900473ffffffffffffffffffffffffffffffffffffffff1673ffffffffffffffffffffffffffffffffffffffff1614159050919050565b6000809054906101000a900473ffffffffffffffffffffffffffffffffffffffff1673ffffffffffffffffffffffffffffffffffffffff163373ffffffffffffffffffffffffffffffffffffffff1614151561063e576040517f08c379a000000000000000000000000000000000000000000000000000000000815260040180806020018281038252601c8152602001807f43616c6c6572206973206e6f7420636f6e7472616374206f776e65720000000081525060200191505060405180910390fd5b600060149054906101000a900460ff1615156106e8576040517f08c379a00000000000000000000000000000000000000000000000000000000081526004018080602001828103825260258152602001807f436f6e74726163742069732063757272656e746c79206e6f74206f706572617481526020017f696f6e616c00000000000000000000000000000000000000000000000000000081525060400191505060405180910390fd5b80600060146101000a81548160ff02191690831515021790555050565b565b6000816000806101000a81548173ffffffffffffffffffffffffffffffffffffffff021916908373ffffffffffffffffffffffffffffffffffffffff1602179055507f14e49bb617cc28a6c641502ed18662c4a046da1b3bb5e3e44761f7257fbe6ab46000809054906101000a900473ffffffffffffffffffffffffffffffffffffffff16604051808273ffffffffffffffffffffffffffffffffffffffff1673ffffffffffffffffffffffffffffffffffffffff16815260200191505060405180910390a160019050919050565b565b565b60008060149054906101000a900460ff161515610885576040517f08c379a00000000000000000000000000000000000000000000000000000000081526004018080602001828103825260258152602001807f436f6e74726163742069732063757272656e746c79206e6f74206f706572617481526020017f696f6e616c00000000000000000000000000000000000000000000000000000081525060400191505060405180910390fd5b8260011515600160008373ffffffffffffffffffffffffffffffffffffffff1673ffffffffffffffffffffffffffffffffffffffff16815260200190815260200160002060020160009054906101000a900460ff16151514151515610952576040517f08c379a000000000000000000000000000000000000000000000000000000000815260040180806020018281038252601d8152602001807f4169726c696e6520697320616c7265616479207265676973746572656400000081525060200191505060405180910390fd5b600a600160003373ffffffffffffffffffffffffffffffffffffffff1673ffffffffffffffffffffffffffffffffffffffff1681526020019081526020016000206001015410151515610a33576040517f08c379a00000000000000000000000000000000000000000000000000000000081526004018080602001828103825260238152602001807f4169726c696e65206973206e6f742073756666696369656e746c792066756e6481526020017f65642e000000000000000000000000000000000000000000000000000000000081525060400191505060405180910390fd5b60046002805490501015610bb5576000809054906101000a900473ffffffffffffffffffffffffffffffffffffffff1673ffffffffffffffffffffffffffffffffffffffff16600160003373ffffffffffffffffffffffffffffffffffffffff1673ffffffffffffffffffffffffffffffffffffffff16815260200190815260200160002060000160009054906101000a900473ffffffffffffffffffffffffffffffffffffffff1673ffffffffffffffffffffffffffffffffffffffff1614151515610bb4576040517f08c379a00000000000000000000000000000000000000000000000000000000081526004018080602001828103825260418152602001807f43757272656e746c792c206f6e6c792072656769737465726564206169726c6981526020017f6e65732063616e20726567697374657220616e6f74686572206169726c696e6581526020017f2e0000000000000000000000000000000000000000000000000000000000000081525060600191505060405180910390fd5b5b6080604051908101604052808573ffffffffffffffffffffffffffffffffffffffff1681526020016000815260200160011515815260200160001515815250600160008673ffffffffffffffffffffffffffffffffffffffff1673ffffffffffffffffffffffffffffffffffffffff16815260200190815260200160002060008201518160000160006101000a81548173ffffffffffffffffffffffffffffffffffffffff021916908373ffffffffffffffffffffffffffffffffffffffff1602179055506020820151816001015560408201518160020160006101000a81548160ff02191690831515021790555060608201518160020160016101000a81548160ff02191690831515021790555090505060028490806001815401808255809150509060018203906000526020600020016000909192909190916101000a81548173ffffffffffffffffffffffffffffffffffffffff021916908373ffffffffffffffffffffffffffffffffffffffff160217905550507f945c2c1176ed60fe5298a362ff65c5e71605de3b0be83177e24414cf14d7f21f846000604051808373ffffffffffffffffffffffffffffffffffffffff1673ffffffffffffffffffffffffffffffffffffffff168152602001821515151581526020019250505060405180910390a15092915050565b60008060149054906101000a900460ff16905090565b60008183019050828110151515610dcd57fe5b809050929150505600a165627a7a723058206bbcb6451238300135c739257b6d5274136da2835abd3ea121fb1a08b6eedd120029",
  "source": "pragma solidity ^0.4.25;\n\nimport \"../node_modules/openzeppelin-solidity/contracts/math/SafeMath.sol\";\n\ncontract FlightSuretyData {\n    using SafeMath for uint256;\n\n    /********************************************************************************************/\n    /*                                       DATA VARIABLES                                     */\n    /********************************************************************************************/\n\n    address private contractOwner;                                      // Account used to deploy contract\n    bool private operational = true;                                    // Blocks all state changes throughout the contract if false\n    \n    struct Airline {\n        address airlineWalletAddress;\n        uint256 balance;\n        bool isRegistered;\n        bool isAllowedToVote; // Airline may not vote until it has funded 10 Ether. \n    }    \n    mapping(address => Airline) private airlines;\n    address[] private registeredAirlines; // Makes it easier to obtain airline count\n\n    /********************************************************************************************/\n    /*                                       EVENT DEFINITIONS                                  */\n    /********************************************************************************************/\n\n    event ContractOwner(address contractOwner);\n\n    // Event fired when an airline is registered\n    // Other airlines watch this and validate the airline\n    event AirlineRegistered(address airlineWalletAddress, bool isAllowedToVote);\n\n\n    /**\n    * @dev Constructor\n    *      The deploying account becomes contractOwner\n    */\n    constructor\n                                (\n                                ) \n                                public\n    {\n        contractOwner = msg.sender;\n        emit ContractOwner(contractOwner);\n    }\n\n    /********************************************************************************************/\n    /*                                       FUNCTION MODIFIERS                                 */\n    /********************************************************************************************/\n\n    // Modifiers help avoid duplication of code. They are typically used to validate something\n    // before a function is allowed to be executed.\n\n    /**\n    * @dev Modifier that requires the \"operational\" boolean variable to be \"true\"\n    *      This is used on all state changing functions to pause the contract in \n    *      the event there is an issue that needs to be fixed\n    */\n    modifier requireIsOperational() \n    {\n        require(operational, \"Contract is currently not operational\");\n        _;  // All modifiers require an \"_\" which indicates where the function body will be added\n    }\n\n    /**\n    * @dev Modifier that requires the \"ContractOwner\" account to be the function caller\n    */\n    modifier requireContractOwner()\n    {\n        require(msg.sender == contractOwner, \"Caller is not contract owner\");\n        _;\n    }\n\n    modifier requireNotAlreadyRegistered(address newAirline)\n    {\n        require(airlines[newAirline].isRegistered != true, \"Airline is already registered\");\n        _;\n    }\n\n    /**\n    * @dev Modifier that requires the Airline to be registered\n    */    \n    modifier requireAirlineIsRegistered(address newAirline)\n    {\n        // if(desiredState == true){\n        //     require(airlines[msg.sender].airlineWalletAddress != address(0), \"Airline is not registered\"); \n        // }\n        // else\n        // {\n        //     require(airlines[msg.sender].airlineWalletAddress == address(0), \"Airline is already registered\");\n        // }\n        // _;\n        require(airlines[newAirline].isRegistered == true, \"Airline is not registered\");\n        _;        \n    }\n\n    /**\n    * @dev Only existing airline may register a new airline until there are at least four airlines registered.\n    */    \n\n    modifier requireAirlineIsFunded()\n    {\n        require(airlines[msg.sender].balance >= 10, \"Airline is not sufficiently funded.\"); \n        _;\n    }\n\n    /**\n    * @dev Only existing airline may register a new airline until there are at least four airlines registered.\n    */    \n\n    modifier requireFirstFourRestriction()\n    {\n        if(registeredAirlines.length < 4)\n        {\n            require(airlines[msg.sender].airlineWalletAddress != contractOwner, \"Currently, only registered airlines can register another airline.\"); \n        }\n        _;\n    }\n\n    /********************************************************************************************/\n    /*                                       UTILITY FUNCTIONS                                  */\n    /********************************************************************************************/\n    /**\n    * @dev Is the addressed mapped to an airline?\n    *\n    */   \n   \n    function authorizeCaller(address _callerAddress) \n                            public \n                            returns(bool)\n\n    {\n        contractOwner = _callerAddress;\n        emit ContractOwner(contractOwner);\n        return true;\n    }\n\n    /**\n    * @dev Is the addressed mapped to an airline?\n    *\n    */      \n    function isAirline(address someAddress) \n                            public \n                            view \n                            returns(bool) \n    {\n        return (airlines[someAddress].airlineWalletAddress != address(0));\n    }\n\n\n    /**\n    * @dev Get operating status of contract\n    *\n    * @return A bool that is the current operating status\n    */      \n    function isOperational() \n                            public \n                            view \n                            returns(bool) \n    {\n        return operational;\n    }\n\n\n    /**\n    * @dev Sets contract operations on/off\n    *\n    * When operational mode is disabled, all write transactions except for this one will fail\n    */    \n    function setOperatingStatus\n                            (\n                                bool mode\n                            ) \n                            external\n                            requireContractOwner()\n                            requireIsOperational()\n                            ////requireAirlineIsRegistered(true)\n    {\n        operational = mode;\n    }\n\n    /********************************************************************************************/\n    /*                                     SMART CONTRACT FUNCTIONS                             */\n    /********************************************************************************************/\n\n   /**\n    * @dev Add an airline to the registration queue\n    *      Can only be called from FlightSuretyApp contract.\n    *      Only existing airline may register a new airline until there are at least four airlines registered.\n    *\n    */   \n    function registerAirline\n                            (address newAirlineWalletAddress,\n                            address originSender\n                            )\n                            external\n\n                            requireIsOperational()\n                            //requireAirlineIsRegistered(false) //Ensure that the airline isn't already registered\n                            requireNotAlreadyRegistered(newAirlineWalletAddress)\n                            requireAirlineIsFunded()\n                            requireFirstFourRestriction()\n                            \n                            returns(bool success)\n    {\n                            airlines[newAirlineWalletAddress] = Airline(newAirlineWalletAddress, 0, true, false); // add new airline to mapping\n                            registeredAirlines.push(newAirlineWalletAddress);               // add to array\n                            emit AirlineRegistered(newAirlineWalletAddress, false);\n    }\n\n\n   /**\n    * @dev Buy insurance for a flight\n    *\n    */   \n    function buy\n                            (                             \n                            )\n                            external\n                            payable\n    {\n\n    }\n\n    /**\n     *  @dev Credits payouts to insurees\n    */\n    function creditInsurees\n                                ( \n                                    // address airline,\n                                    // string memory flight,\n                                    // uint256 timestamp\n                                )\n                                external\n                                pure\n    {\n\n        // TODO Process refunds\n    }\n    \n\n    /**\n     *  @dev Transfers eligible payout funds to insuree\n     *\n    */\n    function pay\n                            (\n                            )\n                            external\n                            pure\n    {\n    }\n\n   /**\n    * @dev Initial funding for the insurance. Unless there are too many delayed flights\n    *      resulting in insurance payouts, the contract should be self-sustaining\n    *\n    */   \n    function fund\n                            (   \n                                address airline\n                            )\n                            public\n                            payable\n\n                            //// requireAirlineIsRegistered(airline)\n    {\n        // address airline = msg.sender;\n        // Add msg.value to balance\n        airlines[airline].balance.add(msg.value); //SafeMath add\n        \n        \n        //Check balance. If > 10E: set isAllowedToVote to true & emit notice. Otherwise, no notice & set to false.\n        if (airlines[airline].balance > 10) {\n             airlines[airline].isAllowedToVote = true;\n             emit AirlineRegistered(airline, airlines[airline].isAllowedToVote);\n        }\n        else {\n            airlines[airline].isAllowedToVote = false;\n        }\n    }\n\n    function getFlightKey\n                        (\n                            address airline,\n                            string memory flight,\n                            //string flight,\n                            uint256 timestamp\n                        )\n                        pure\n                        internal\n                        returns(bytes32) \n    {\n        return keccak256(abi.encodePacked(airline, flight, timestamp));\n    }\n\n    /**\n    * @dev Fallback function for funding smart contract.\n    *      \"Fallback functions are also executed whenever a contract would receive plain Ether, without any data.\"\n    *\n    */\n    function() \n                            external \n                            payable \n    {\n        fund(contractOwner);\n    }\n\n\n}\n",
  "sourcePath": "C:\\Users\\Mark\\source\\repos\\GitHub\\flightsurety\\contracts\\FlightSuretyData.sol",
  "compiler": {
    "name": "solc",
    "version": "0.4.25+commit.59dbf8f1.Emscripten.clang"
  },
  "schemaVersion": "2.0.2",
  "updatedAt": "2019-04-08T21:53:45.280Z"
}